{
  "abi": [
    {
      "inputs": [],
      "stateMutability": "nonpayable",
      "type": "constructor"
    },
    {
      "anonymous": false,
      "inputs": [
        {
          "indexed": true,
          "internalType": "address",
          "name": "_owner",
          "type": "address"
        },
        {
          "indexed": false,
          "internalType": "uint256",
          "name": "_amount",
          "type": "uint256"
        },
        {
          "indexed": false,
          "internalType": "uint256",
          "name": "_nonce",
          "type": "uint256"
        }
      ],
      "name": "ClaimOXOA",
      "type": "event"
    },
    {
      "anonymous": false,
      "inputs": [
        {
          "indexed": false,
          "internalType": "uint256",
          "name": "_numberOfNodes",
          "type": "uint256"
        },
        {
          "indexed": true,
          "internalType": "address",
          "name": "_owner",
          "type": "address"
        },
        {
          "indexed": false,
          "internalType": "uint256",
          "name": "_nodeId",
          "type": "uint256"
        },
        {
          "indexed": true,
          "internalType": "uint256",
          "name": "_nodePrice",
          "type": "uint256"
        },
        {
          "indexed": false,
          "internalType": "uint256",
          "name": "_refAmount",
          "type": "uint256"
        },
        {
          "indexed": true,
          "internalType": "address",
          "name": "_refAddress",
          "type": "address"
        }
      ],
      "name": "NewNode",
      "type": "event"
    },
    {
      "anonymous": false,
      "inputs": [
        {
          "indexed": true,
          "internalType": "address",
          "name": "previousOwner",
          "type": "address"
        },
        {
          "indexed": true,
          "internalType": "address",
          "name": "newOwner",
          "type": "address"
        }
      ],
      "name": "OwnershipTransferred",
      "type": "event"
    },
    {
      "inputs": [],
      "name": "_state",
      "outputs": [
        {
          "internalType": "address",
          "name": "_oxoaTokenAddress",
          "type": "address"
        },
        {
          "internalType": "uint256",
          "name": "_nodePrice",
          "type": "uint256"
        },
        {
          "internalType": "uint256",
          "name": "_refPercent",
          "type": "uint256"
        }
      ],
      "stateMutability": "view",
      "type": "function"
    },
    {
      "inputs": [
        {
          "internalType": "uint256",
          "name": "_numberOfNodes",
          "type": "uint256"
        },
        {
          "internalType": "address",
          "name": "_refAddress",
          "type": "address"
        }
      ],
      "name": "buyNodeKey",
      "outputs": [],
      "stateMutability": "payable",
      "type": "function"
    },
    {
      "inputs": [
        {
          "internalType": "uint256",
          "name": "amount",
          "type": "uint256"
        },
        {
          "internalType": "uint256",
          "name": "nonce",
          "type": "uint256"
        },
        {
          "internalType": "bytes",
          "name": "signature",
          "type": "bytes"
        }
      ],
      "name": "claimOxoa",
      "outputs": [],
      "stateMutability": "nonpayable",
      "type": "function"
    },
    {
      "inputs": [
        {
          "internalType": "string",
          "name": "",
          "type": "string"
        }
      ],
      "name": "discounts",
      "outputs": [
        {
          "internalType": "uint256",
          "name": "percent",
          "type": "uint256"
        },
        {
          "internalType": "uint256",
          "name": "count",
          "type": "uint256"
        }
      ],
      "stateMutability": "view",
      "type": "function"
    },
    {
      "inputs": [
        {
          "internalType": "bytes32",
          "name": "_messageHash",
          "type": "bytes32"
        }
      ],
      "name": "getEthSignedMessageHash",
      "outputs": [
        {
          "internalType": "bytes32",
          "name": "",
          "type": "bytes32"
        }
      ],
      "stateMutability": "pure",
      "type": "function"
    },
    {
      "inputs": [
        {
          "internalType": "address",
          "name": "_to",
          "type": "address"
        },
        {
          "internalType": "uint256",
          "name": "_amount",
          "type": "uint256"
        },
        {
          "internalType": "uint256",
          "name": "_nonce",
          "type": "uint256"
        }
      ],
      "name": "getMessageHash",
      "outputs": [
        {
          "internalType": "bytes32",
          "name": "",
          "type": "bytes32"
        }
      ],
      "stateMutability": "pure",
      "type": "function"
    },
    {
      "inputs": [],
      "name": "holderAddress",
      "outputs": [
        {
          "internalType": "address",
          "name": "",
          "type": "address"
        }
      ],
      "stateMutability": "view",
      "type": "function"
    },
    {
      "inputs": [],
      "name": "nodePrice",
      "outputs": [
        {
          "internalType": "uint256",
          "name": "",
          "type": "uint256"
        }
      ],
      "stateMutability": "view",
      "type": "function"
    },
    {
      "inputs": [],
      "name": "owner",
      "outputs": [
        {
          "internalType": "address",
          "name": "",
          "type": "address"
        }
      ],
      "stateMutability": "view",
      "type": "function"
    },
    {
      "inputs": [],
      "name": "oxoaTokenAddress",
      "outputs": [
        {
          "internalType": "address",
          "name": "",
          "type": "address"
        }
      ],
      "stateMutability": "view",
      "type": "function"
    },
    {
      "inputs": [],
      "name": "recipientAddress",
      "outputs": [
        {
          "internalType": "address",
          "name": "",
          "type": "address"
        }
      ],
      "stateMutability": "view",
      "type": "function"
    },
    {
      "inputs": [
        {
          "internalType": "bytes32",
          "name": "_ethSignedMessageHash",
          "type": "bytes32"
        },
        {
          "internalType": "bytes",
          "name": "_signature",
          "type": "bytes"
        }
      ],
      "name": "recoverSigner",
      "outputs": [
        {
          "internalType": "address",
          "name": "",
          "type": "address"
        }
      ],
      "stateMutability": "pure",
      "type": "function"
    },
    {
      "inputs": [],
      "name": "refPercent",
      "outputs": [
        {
          "internalType": "uint256",
          "name": "",
          "type": "uint256"
        }
      ],
      "stateMutability": "view",
      "type": "function"
    },
    {
      "inputs": [
        {
          "internalType": "address",
          "name": "",
          "type": "address"
        }
      ],
      "name": "refs",
      "outputs": [
        {
          "internalType": "uint256",
          "name": "count",
          "type": "uint256"
        },
        {
          "internalType": "uint256",
          "name": "amount",
          "type": "uint256"
        }
      ],
      "stateMutability": "view",
      "type": "function"
    },
    {
      "inputs": [],
      "name": "renounceOwnership",
      "outputs": [],
      "stateMutability": "nonpayable",
      "type": "function"
    },
    {
      "inputs": [
        {
          "internalType": "string",
          "name": "_code",
          "type": "string"
        },
        {
          "internalType": "uint256",
          "name": "_percent",
          "type": "uint256"
        },
        {
          "internalType": "uint256",
          "name": "_count",
          "type": "uint256"
        }
      ],
      "name": "setDiscount",
      "outputs": [],
      "stateMutability": "nonpayable",
      "type": "function"
    },
    {
      "inputs": [
        {
          "internalType": "address",
          "name": "_holderAddress",
          "type": "address"
        }
      ],
      "name": "setHolderAddress",
      "outputs": [],
      "stateMutability": "nonpayable",
      "type": "function"
    },
    {
      "inputs": [
        {
          "internalType": "address",
          "name": "_oxoaTokenAddress",
          "type": "address"
        }
      ],
      "name": "setOxoaTokenAddress",
      "outputs": [],
      "stateMutability": "nonpayable",
      "type": "function"
    },
    {
      "inputs": [
        {
          "internalType": "address",
          "name": "_recipientAddress",
          "type": "address"
        }
      ],
      "name": "setRecipientAddress",
      "outputs": [],
      "stateMutability": "nonpayable",
      "type": "function"
    },
    {
      "inputs": [
        {
          "internalType": "uint256",
          "name": "_refPercent",
          "type": "uint256"
        }
      ],
      "name": "setRefPercent",
      "outputs": [],
      "stateMutability": "nonpayable",
      "type": "function"
    },
    {
      "inputs": [
        {
          "internalType": "address",
          "name": "_refAddress",
          "type": "address"
        },
        {
          "internalType": "uint256",
          "name": "_refPercent",
          "type": "uint256"
        }
      ],
      "name": "setSpecialRef",
      "outputs": [],
      "stateMutability": "nonpayable",
      "type": "function"
    },
    {
      "inputs": [
        {
          "internalType": "address",
          "name": "",
          "type": "address"
        }
      ],
      "name": "specialRefs",
      "outputs": [
        {
          "internalType": "uint256",
          "name": "",
          "type": "uint256"
        }
      ],
      "stateMutability": "view",
      "type": "function"
    },
    {
      "inputs": [
        {
          "internalType": "bytes",
          "name": "sig",
          "type": "bytes"
        }
      ],
      "name": "splitSignature",
      "outputs": [
        {
          "internalType": "bytes32",
          "name": "r",
          "type": "bytes32"
        },
        {
          "internalType": "bytes32",
          "name": "s",
          "type": "bytes32"
        },
        {
          "internalType": "uint8",
          "name": "v",
          "type": "uint8"
        }
      ],
      "stateMutability": "pure",
      "type": "function"
    },
    {
      "inputs": [
        {
          "internalType": "address",
          "name": "newOwner",
          "type": "address"
        }
      ],
      "name": "transferOwnership",
      "outputs": [],
      "stateMutability": "nonpayable",
      "type": "function"
    },
    {
      "inputs": [
        {
          "internalType": "uint256",
          "name": "_nodePrice",
          "type": "uint256"
        }
      ],
      "name": "updateNodePrice",
      "outputs": [],
      "stateMutability": "nonpayable",
      "type": "function"
    },
    {
      "inputs": [
        {
          "internalType": "uint256",
          "name": "",
          "type": "uint256"
        }
      ],
      "name": "usedNonce",
      "outputs": [
        {
          "internalType": "bool",
          "name": "",
          "type": "bool"
        }
      ],
      "stateMutability": "view",
      "type": "function"
    },
    {
      "inputs": [
        {
          "internalType": "address",
          "name": "_signer",
          "type": "address"
        },
        {
          "internalType": "address",
          "name": "_to",
          "type": "address"
        },
        {
          "internalType": "uint256",
          "name": "_amount",
          "type": "uint256"
        },
        {
          "internalType": "uint256",
          "name": "_nonce",
          "type": "uint256"
        },
        {
          "internalType": "bytes",
          "name": "signature",
          "type": "bytes"
        }
      ],
      "name": "verify",
      "outputs": [
        {
          "internalType": "bool",
          "name": "",
          "type": "bool"
        }
      ],
      "stateMutability": "pure",
      "type": "function"
    }
  ],
  "bytecode": {
    "object": "0x6080604052600180546001600160a01b031990811673dc2db003be75d4e2a2f1d00b9efc91c00b8d814b1790915560028054821690556003805490911690556005600455668e1bc9bf04000060065534801561005a57600080fd5b506100643361008b565b60038054336001600160a01b031991821681179092556002805490911690911790556100db565b600080546001600160a01b038381166001600160a01b0319831681178455604051919092169283917f8be0079c531659141344cd1fd0a4f28419497f9722a3daafe3b4186f6b6457e09190a35050565b6112bf806100ea6000396000f3fe60806040526004361061019c5760003560e01c806397aba7f9116100ec578063d2b0737b1161008a578063f1fec2b811610064578063f1fec2b814610538578063f2fde38b1461054e578063fa5408011461056e578063ff30517d1461058e57600080fd5b8063d2b0737b146104d8578063d94c0a34146104f8578063da5f051c1461051857600080fd5b8063adbc9ffb116100c6578063adbc9ffb14610458578063b8c501fa14610478578063bd17f91314610498578063cffc18eb146104b857600080fd5b806397aba7f9146103bf578063a1cb31b7146103df578063a7bb58031461041a57600080fd5b80636fa4f5f71161015957806375c6c6da1161013357806375c6c6da1461030d5780638da5cb5b1461034157806396fc2be01461035f5780639723fb6d1461037f57600080fd5b80636fa4f5f7146102b857806370527998146102d8578063715018a6146102f857600080fd5b806334765158146101a157806336bfc264146101fa57806359d5335b1461021c5780635aff5999146102405780636567f5a71461027857806369e7186d146102a5575b600080fd5b3480156101ad57600080fd5b506101e06101bc366004610ee3565b80516020818301810180516005825292820191909301209152805460019091015482565b604080519283526020830191909152015b60405180910390f35b34801561020657600080fd5b5061021a610215366004610f50565b6105ae565b005b34801561022857600080fd5b5061023260045481565b6040519081526020016101f1565b34801561024c57600080fd5b50600254610260906001600160a01b031681565b6040516001600160a01b0390911681526020016101f1565b34801561028457600080fd5b50610232610293366004610f50565b60086020526000908152604090205481565b61021a6102b3366004610f72565b6105d8565b3480156102c457600080fd5b5061021a6102d3366004610f9e565b61062d565b3480156102e457600080fd5b5061021a6102f3366004610f50565b610690565b34801561030457600080fd5b5061021a6106ba565b34801561031957600080fd5b506101e0610328366004610f50565b6009602052600090815260409020805460019091015482565b34801561034d57600080fd5b506000546001600160a01b0316610260565b34801561036b57600080fd5b50600354610260906001600160a01b031681565b34801561038b57600080fd5b506103af61039a366004610f9e565b60076020526000908152604090205460ff1681565b60405190151581526020016101f1565b3480156103cb57600080fd5b506102606103da366004610fd7565b6106ce565b3480156103eb57600080fd5b50600154600654600454604080516001600160a01b0390941684526020840192909252908201526060016101f1565b34801561042657600080fd5b5061043a61043536600461101e565b61074d565b60408051938452602084019290925260ff16908201526060016101f1565b34801561046457600080fd5b5061021a610473366004611053565b6107c1565b34801561048457600080fd5b5061021a6104933660046110c6565b610836565b3480156104a457600080fd5b5061021a6104b3366004610f50565b6108f4565b3480156104c457600080fd5b506103af6104d3366004611117565b61091e565b3480156104e457600080fd5b506102326104f3366004611189565b610965565b34801561050457600080fd5b5061021a6105133660046111bc565b6109b4565b34801561052457600080fd5b5061021a610533366004610f9e565b610ba4565b34801561054457600080fd5b5061023260065481565b34801561055a57600080fd5b5061021a610569366004610f50565b610bb1565b34801561057a57600080fd5b50610232610589366004610f9e565b610c2a565b34801561059a57600080fd5b50600154610260906001600160a01b031681565b6105b6610c7d565b600280546001600160a01b0319166001600160a01b0392909216919091179055565b600654604080518481526001602082015260008183015290516001600160a01b038416929133917f448511bdc0685b88ba7db67a898512cd63b1a760d8beef3e3d109749078453339181900360600190a45050565b610635610c7d565b60648111158015610644575060015b61068b5760405162461bcd60e51b8152602060048201526013602482015272125b9d985b1a59081c9959881c195c98d95b9d606a1b60448201526064015b60405180910390fd5b600455565b610698610c7d565b600180546001600160a01b0319166001600160a01b0392909216919091179055565b6106c2610c7d565b6106cc6000610cd7565b565b6000806000806106dd8561074d565b6040805160008152602081018083528b905260ff8316918101919091526060810184905260808101839052929550909350915060019060a0016020604051602081039080840390855afa158015610738573d6000803e3d6000fd5b5050604051601f190151979650505050505050565b600080600083516041146107a35760405162461bcd60e51b815260206004820152601860248201527f696e76616c6964207369676e6174757265206c656e67746800000000000000006044820152606401610682565b50505060208101516040820151606090920151909260009190911a90565b6107c9610c7d565b606481111580156107d8575060015b61081a5760405162461bcd60e51b8152602060048201526013602482015272125b9d985b1a59081c9959881c195c98d95b9d606a1b6044820152606401610682565b6001600160a01b03909116600090815260086020526040902055565b61083e610c7d565b6064821115801561084d575060015b8015610857575060015b6108a35760405162461bcd60e51b815260206004820152601860248201527f496e76616c696420646973636f756e742070657263656e7400000000000000006044820152606401610682565b81600585856040516108b692919061120f565b9081526040519081900360200181209190915581906005906108db908790879061120f565b9081526040519081900360200190206001015550505050565b6108fc610c7d565b600380546001600160a01b0319166001600160a01b0392909216919091179055565b60008061092c868686610965565b9050600061093982610c2a565b9050876001600160a01b031661094f82866106ce565b6001600160a01b03161498975050505050505050565b6040516bffffffffffffffffffffffff19606085901b16602082015260348101839052605481018290526000906074016040516020818303038152906040528051906020012090509392505050565b610a086109c96000546001600160a01b031690565b33868686868080601f01602080910402602001604051908101604052809392919081815260200183838082843760009201919091525061091e92505050565b8015610a23575060008381526007602052604090205460ff16155b610a635760405162461bcd60e51b8152602060048201526011602482015270496e76616c6964207369676e617475726560781b6044820152606401610682565b600154600354604051636eb1769f60e11b81526001600160a01b0391821660048201523060248201528692919091169063dd62ed3e90604401602060405180830381865afa158015610ab9573d6000803e3d6000fd5b505050506040513d601f19601f82011682018060405250810190610add919061121f565b1015610b2b5760405162461bcd60e51b815260206004820152601a60248201527f546f6b656e20686f6c646572206e6f7420616c6c6f77616e63650000000000006044820152606401610682565b6000838152600760205260409020805460ff1916600190811790915554600354610b63916001600160a01b0390811691163387610d27565b604080518581526020810185905233917f57d841b8b5ed14a49553b4d5939271b3546c6872e8abc2b853d86cda17cba4bd910160405180910390a250505050565b610bac610c7d565b600655565b610bb9610c7d565b6001600160a01b038116610c1e5760405162461bcd60e51b815260206004820152602660248201527f4f776e61626c653a206e6577206f776e657220697320746865207a65726f206160448201526564647265737360d01b6064820152608401610682565b610c2781610cd7565b50565b6040517f19457468657265756d205369676e6564204d6573736167653a0a3332000000006020820152603c8101829052600090605c01604051602081830303815290604052805190602001209050919050565b6000546001600160a01b031633146106cc5760405162461bcd60e51b815260206004820181905260248201527f4f776e61626c653a2063616c6c6572206973206e6f7420746865206f776e65726044820152606401610682565b600080546001600160a01b038381166001600160a01b0319831681178455604051919092169283917f8be0079c531659141344cd1fd0a4f28419497f9722a3daafe3b4186f6b6457e09190a35050565b604080516001600160a01b0385811660248301528481166044830152606480830185905283518084039091018152608490920183526020820180516001600160e01b03166323b872dd60e01b1790529151600092839290881691610d8b9190611238565b6000604051808303816000865af19150503d8060008114610dc8576040519150601f19603f3d011682016040523d82523d6000602084013e610dcd565b606091505b5091509150818015610df7575080511580610df7575080806020019051810190610df79190611267565b610e4f5760405162461bcd60e51b8152602060048201526024808201527f5472616e7366657248656c7065723a205452414e534645525f46524f4d5f46416044820152631253115160e21b6064820152608401610682565b505050505050565b634e487b7160e01b600052604160045260246000fd5b600067ffffffffffffffff80841115610e8857610e88610e57565b604051601f8501601f19908116603f01168101908282118183101715610eb057610eb0610e57565b81604052809350858152868686011115610ec957600080fd5b858560208301376000602087830101525050509392505050565b600060208284031215610ef557600080fd5b813567ffffffffffffffff811115610f0c57600080fd5b8201601f81018413610f1d57600080fd5b610f2c84823560208401610e6d565b949350505050565b80356001600160a01b0381168114610f4b57600080fd5b919050565b600060208284031215610f6257600080fd5b610f6b82610f34565b9392505050565b60008060408385031215610f8557600080fd5b82359150610f9560208401610f34565b90509250929050565b600060208284031215610fb057600080fd5b5035919050565b600082601f830112610fc857600080fd5b610f6b83833560208501610e6d565b60008060408385031215610fea57600080fd5b82359150602083013567ffffffffffffffff81111561100857600080fd5b61101485828601610fb7565b9150509250929050565b60006020828403121561103057600080fd5b813567ffffffffffffffff81111561104757600080fd5b610f2c84828501610fb7565b6000806040838503121561106657600080fd5b61106f83610f34565b946020939093013593505050565b60008083601f84011261108f57600080fd5b50813567ffffffffffffffff8111156110a757600080fd5b6020830191508360208285010111156110bf57600080fd5b9250929050565b600080600080606085870312156110dc57600080fd5b843567ffffffffffffffff8111156110f357600080fd5b6110ff8782880161107d565b90989097506020870135966040013595509350505050565b600080600080600060a0868803121561112f57600080fd5b61113886610f34565b945061114660208701610f34565b93506040860135925060608601359150608086013567ffffffffffffffff81111561117057600080fd5b61117c88828901610fb7565b9150509295509295909350565b60008060006060848603121561119e57600080fd5b6111a784610f34565b95602085013595506040909401359392505050565b600080600080606085870312156111d257600080fd5b8435935060208501359250604085013567ffffffffffffffff8111156111f757600080fd5b6112038782880161107d565b95989497509550505050565b8183823760009101908152919050565b60006020828403121561123157600080fd5b5051919050565b6000825160005b81811015611259576020818601810151858301520161123f565b506000920191825250919050565b60006020828403121561127957600080fd5b81518015158114610f6b57600080fdfea264697066735822122084285f181a574ca68cfd2d04c760ceb505403429863fb84d0325eec3553a51d064736f6c63430008150033",
    "linkReferences": {}
  },
  "methodIdentifiers": {
    "_state()": "a1cb31b7",
    "buyNodeKey(uint256,address)": "69e7186d",
    "claimOxoa(uint256,uint256,bytes)": "d94c0a34",
    "discounts(string)": "34765158",
    "getEthSignedMessageHash(bytes32)": "fa540801",
    "getMessageHash(address,uint256,uint256)": "d2b0737b",
    "holderAddress()": "96fc2be0",
    "nodePrice()": "f1fec2b8",
    "owner()": "8da5cb5b",
    "oxoaTokenAddress()": "ff30517d",
    "recipientAddress()": "5aff5999",
    "recoverSigner(bytes32,bytes)": "97aba7f9",
    "refPercent()": "59d5335b",
    "refs(address)": "75c6c6da",
    "renounceOwnership()": "715018a6",
    "setDiscount(string,uint256,uint256)": "b8c501fa",
    "setHolderAddress(address)": "bd17f913",
    "setOxoaTokenAddress(address)": "70527998",
    "setRecipientAddress(address)": "36bfc264",
    "setRefPercent(uint256)": "6fa4f5f7",
    "setSpecialRef(address,uint256)": "adbc9ffb",
    "specialRefs(address)": "6567f5a7",
    "splitSignature(bytes)": "a7bb5803",
    "transferOwnership(address)": "f2fde38b",
    "updateNodePrice(uint256)": "da5f051c",
    "usedNonce(uint256)": "9723fb6d",
    "verify(address,address,uint256,uint256,bytes)": "cffc18eb"
  },
  "id": 0
}